:100000000C9434000C9451000C9451000C94510049
:100010000C9451000C9451000C9451000C9451001C
:100020000C9451000C9451000C9451000C9451000C
:100030000C9451000C9451000C9451000C945100FC
:100040000C9451000C9451000C9451000C945100EC
:100050000C9451000C9451000C9451000C945100DC
:100060000C9451000C94510011241FBECFEFD8E026
:10007000DEBFCDBF11E0A0E0B1E0EAEFF4E002C0E6
:1000800005900D92A030B107D9F721E0A0E0B1E0D2
:1000900001C01D92A130B207E1F70E9453000C94F9
:1000A0007B020C9400008BB184608BB98BB1877F8D
:1000B0008BB985B18F7D85B98AB184608AB98AB1DF
:1000C000877F8AB984B1806284B92AE12A95F1F7E1
:1000D00000C08AB188608AB98AE18A95F1F700C0C8
:1000E00080E020C09BB19B7F9BB920E430E0082ECC
:1000F00002C0359527950A94E2F720FF04C09AB113
:10010000977F9AB903C09AB198609AB99AE19A9583
:10011000F1F700C09BB194609BB92AE12A95F1F7F1
:1001200000C08F5F8830F0F28BB18B7F8BB98AB1C2
:10013000877F8AB94B9905C0809100018F5F8093BA
:1001400000018AE18A95F1F700C08BB184608BB918
:100150009AE19A95F1F700C08BB18B7F8BB98AB188
:1001600088608AB92AE12A95F1F700C08BB18460D2
:100170008BB98AE18A95F1F700C08AB1877F8AB985
:100180009AE19A95F1F700C08AB188608AB92AE1AC
:100190002A95F1F700C080E020C09BB19B7F9BB9FE
:1001A00020EC30E0082E02C0359527950A94E2F73E
:1001B00020FF04C09AB1977F9AB903C09AB19860A2
:1001C0009AB99AE19A95F1F700C09BB194609BB9F6
:1001D0002AE12A95F1F700C08F5F8830F0F28BB1E9
:1001E0008B7F8BB98AB1877F8AB94B9905C0809183
:1001F00000018F5F809300018AE18A95F1F700C0CA
:100200008BB184608BB99AE19A95F1F700C080E0D8
:1002100020C09BB19B7F9BB92FE330E0082E02C02A
:10022000359527950A94E2F720FF04C09AB1977F8D
:100230009AB903C09AB198609AB92AE12A95F1F760
:1002400000C09BB194609BB99AE19A95F1F700C008
:100250008F5F8830F0F28BB18B7F8BB98AB1877F4B
:100260008AB94B9905C0809100018F5F809300018E
:100270002AE12A95F1F700C08BB184608BB98AE13D
:100280008A95F1F700C080E020C09BB19B7F9BB9AD
:1002900026E030E0082E02C0359527950A94E2F753
:1002A00020FF04C09AB1977F9AB903C09AB19860B1
:1002B0009AB99AE19A95F1F700C09BB194609BB905
:1002C0002AE12A95F1F700C08F5F8830F0F28BB1F8
:1002D0008B7F8BB98AB1877F8AB94B9905C0809192
:1002E00000018F5F809300018AE18A95F1F700C0D9
:1002F0008BB184608BB99AE19A95F1F700C080E0E8
:1003000020C09BB19B7F9BB92BE530E0082E02C03B
:10031000359527950A94E2F720FF04C09AB1977F9C
:100320009AB903C09AB198609AB92AE12A95F1F76F
:1003300000C09BB194609BB99AE19A95F1F700C017
:100340008F5F8830F0F28BB18B7F8BB98AB1877F5A
:100350008AB94B9905C0809100018F5F809300019D
:100360002AE12A95F1F700C08BB184608BB98AE14C
:100370008A95F1F700C080E020C09BB19B7F9BB9BC
:100380002FE430E0082E02C0359527950A94E2F755
:1003900020FF04C09AB1977F9AB903C09AB19860C0
:1003A0009AB99AE19A95F1F700C09BB194609BB914
:1003B0002AE12A95F1F700C08F5F8830F0F28BB107
:1003C0008B7F8BB98AB1877F8AB94B9905C08091A1
:1003D00000018F5F809300018AE18A95F1F700C0E8
:1003E0008BB184608BB99AE19A95F1F700C08BB11B
:1003F0008B7F8BB98AB188608AB92AE12A95F1F797
:1004000000C08BB184608BB98AE18A95F1F700C096
:100410008AB1877F8AB99AE19A95F1F700C08AB1CB
:1004200088608AB92AE12A95F1F700C080E020C0EF
:100430009BB19B7F9BB92FE830E0082E02C0359519
:1004400027950A94E2F720FF04C09AB1977F9AB9E2
:1004500003C09AB198609AB99AE19A95F1F700C0F1
:100460009BB194609BB92AE12A95F1F700C08F5F98
:100470008830F0F28BB18B7F8BB98AB1877F8AB9D4
:100480004B9905C0809100018F5F809300018AE144
:100490008A95F1F700C08BB184608BB99AE19A9587
:1004A000F1F700C08BB18B7F8BB98AB188608AB9B4
:1004B0002AE12A95F1F700C08BB184608BB98AE1FB
:1004C0008A95F1F700C08AB1877F8AB99AE19A9537
:1004D000F1F700C02FEF83E294EF2150804090406D
:1004E000E1F700C0000080910001873019F485B168
:0A04F000806285B9FFCFF894FFCFBA
:00000001FF
